{
  "contractName": "MockDaiToUsdPriceFeed",
  "abi": [
    {
      "constant": false,
      "inputs": [
        {
          "internalType": "uint256",
          "name": "newPrice",
          "type": "uint256"
        }
      ],
      "name": "setPrice",
      "outputs": [],
      "payable": false,
      "stateMutability": "nonpayable",
      "type": "function"
    },
    {
      "constant": true,
      "inputs": [
        {
          "internalType": "uint256",
          "name": "marketId",
          "type": "uint256"
        }
      ],
      "name": "getMarketPrice",
      "outputs": [
        {
          "internalType": "uint256",
          "name": "",
          "type": "uint256"
        }
      ],
      "payable": false,
      "stateMutability": "view",
      "type": "function"
    }
  ],
  "bytecode": "0x6080604052670de0b6b3a764000060005534801561001c57600080fd5b5061016c8061002c6000396000f3fe608060405234801561001057600080fd5b50600436106100365760003560e01c80638928378e1461003b57806391b7f5ed1461007d575b600080fd5b6100676004803603602081101561005157600080fd5b81019080803590602001909291905050506100ab565b6040518082815260200191505060405180910390f35b6100a96004803603602081101561009357600080fd5b810190808035906020019092919050505061012d565b005b600060038214610123576040517f08c379a00000000000000000000000000000000000000000000000000000000081526004018080602001828103825260108152602001807f696e76616c69642d6d61726b657449640000000000000000000000000000000081525060200191505060405180910390fd5b6000549050919050565b806000819055505056fea265627a7a723158201e190d8502524e5b76cf48a19187fef9f015cb1dfba238a5563bfa6aecf0438964736f6c63430005100032",
  "source": "pragma solidity ^0.5.12;\n\ncontract MockDaiToUsdPriceFeed {\n    uint price = 1e18;\n    function setPrice(uint newPrice) public {\n        price = newPrice;\n    }\n\n    function getMarketPrice(uint marketId) public view returns (uint) {\n        require(marketId == 3, \"invalid-marketId\");\n        return price;\n    }\n}\n",
  "sourcePath": "/Users/jitendra/work/BLP/bprotocol-deploy/contracts/MockDaiToUsdPriceFeed.sol",
  "compiler": {
    "name": "solc",
    "version": "0.5.16+commit.9c3226ce.Emscripten.clang"
  },
  "schemaVersion": "3.2.3",
  "updatedAt": "2020-10-21T15:00:18.434Z",
  "devdoc": {
    "methods": {}
  },
  "userdoc": {
    "methods": {}
  }
}